{
  "_format": "hh-sol-artifact-1",
  "contractName": "X402PaymentContract",
  "sourceName": "contracts/X402PaymentContract.sol",
  "abi": [
    {
      "inputs": [
        {
          "internalType": "address",
          "name": "_usdcToken",
          "type": "address"
        }
      ],
      "stateMutability": "nonpayable",
      "type": "constructor"
    },
    {
      "inputs": [],
      "name": "InsufficientBalance",
      "type": "error"
    },
    {
      "inputs": [],
      "name": "InvalidAmount",
      "type": "error"
    },
    {
      "inputs": [
        {
          "internalType": "address",
          "name": "owner",
          "type": "address"
        }
      ],
      "name": "OwnableInvalidOwner",
      "type": "error"
    },
    {
      "inputs": [
        {
          "internalType": "address",
          "name": "account",
          "type": "address"
        }
      ],
      "name": "OwnableUnauthorizedAccount",
      "type": "error"
    },
    {
      "inputs": [],
      "name": "PaymentAlreadyProcessed",
      "type": "error"
    },
    {
      "inputs": [],
      "name": "ReentrancyGuardReentrantCall",
      "type": "error"
    },
    {
      "inputs": [],
      "name": "TransferFailed",
      "type": "error"
    },
    {
      "inputs": [],
      "name": "Unauthorized",
      "type": "error"
    },
    {
      "anonymous": false,
      "inputs": [
        {
          "indexed": true,
          "internalType": "address",
          "name": "previousOwner",
          "type": "address"
        },
        {
          "indexed": true,
          "internalType": "address",
          "name": "newOwner",
          "type": "address"
        }
      ],
      "name": "OwnershipTransferred",
      "type": "event"
    },
    {
      "anonymous": false,
      "inputs": [
        {
          "indexed": true,
          "internalType": "address",
          "name": "payer",
          "type": "address"
        },
        {
          "indexed": true,
          "internalType": "address",
          "name": "recipient",
          "type": "address"
        },
        {
          "indexed": false,
          "internalType": "uint256",
          "name": "amount",
          "type": "uint256"
        },
        {
          "indexed": true,
          "internalType": "bytes32",
          "name": "requestId",
          "type": "bytes32"
        },
        {
          "indexed": false,
          "internalType": "uint256",
          "name": "timestamp",
          "type": "uint256"
        }
      ],
      "name": "PaymentMade",
      "type": "event"
    },
    {
      "anonymous": false,
      "inputs": [
        {
          "indexed": true,
          "internalType": "bytes32",
          "name": "requestId",
          "type": "bytes32"
        },
        {
          "indexed": true,
          "internalType": "address",
          "name": "payer",
          "type": "address"
        },
        {
          "indexed": false,
          "internalType": "uint256",
          "name": "amount",
          "type": "uint256"
        },
        {
          "indexed": false,
          "internalType": "bool",
          "name": "success",
          "type": "bool"
        }
      ],
      "name": "PaymentVerified",
      "type": "event"
    },
    {
      "anonymous": false,
      "inputs": [
        {
          "indexed": false,
          "internalType": "uint256",
          "name": "oldFee",
          "type": "uint256"
        },
        {
          "indexed": false,
          "internalType": "uint256",
          "name": "newFee",
          "type": "uint256"
        }
      ],
      "name": "PlatformFeeUpdated",
      "type": "event"
    },
    {
      "inputs": [],
      "name": "FEE_DENOMINATOR",
      "outputs": [
        {
          "internalType": "uint256",
          "name": "",
          "type": "uint256"
        }
      ],
      "stateMutability": "view",
      "type": "function"
    },
    {
      "inputs": [
        {
          "internalType": "bytes32[]",
          "name": "requestIds",
          "type": "bytes32[]"
        }
      ],
      "name": "batchVerifyPayments",
      "outputs": [
        {
          "internalType": "bool[]",
          "name": "results",
          "type": "bool[]"
        }
      ],
      "stateMutability": "view",
      "type": "function"
    },
    {
      "inputs": [
        {
          "internalType": "address",
          "name": "token",
          "type": "address"
        },
        {
          "internalType": "uint256",
          "name": "amount",
          "type": "uint256"
        }
      ],
      "name": "emergencyWithdraw",
      "outputs": [],
      "stateMutability": "nonpayable",
      "type": "function"
    },
    {
      "inputs": [],
      "name": "getContractInfo",
      "outputs": [
        {
          "internalType": "address",
          "name": "usdcAddress",
          "type": "address"
        },
        {
          "internalType": "uint256",
          "name": "platformFeeBps",
          "type": "uint256"
        },
        {
          "internalType": "uint256",
          "name": "totalPaymentsCount",
          "type": "uint256"
        }
      ],
      "stateMutability": "view",
      "type": "function"
    },
    {
      "inputs": [
        {
          "internalType": "address",
          "name": "user",
          "type": "address"
        }
      ],
      "name": "getPaymentStats",
      "outputs": [
        {
          "internalType": "uint256",
          "name": "totalPaid",
          "type": "uint256"
        },
        {
          "internalType": "uint256",
          "name": "totalRequestsMade",
          "type": "uint256"
        }
      ],
      "stateMutability": "view",
      "type": "function"
    },
    {
      "inputs": [
        {
          "internalType": "address",
          "name": "recipient",
          "type": "address"
        },
        {
          "internalType": "uint256",
          "name": "amount",
          "type": "uint256"
        },
        {
          "internalType": "bytes32",
          "name": "requestId",
          "type": "bytes32"
        }
      ],
      "name": "makePayment",
      "outputs": [],
      "stateMutability": "nonpayable",
      "type": "function"
    },
    {
      "inputs": [],
      "name": "owner",
      "outputs": [
        {
          "internalType": "address",
          "name": "",
          "type": "address"
        }
      ],
      "stateMutability": "view",
      "type": "function"
    },
    {
      "inputs": [
        {
          "internalType": "bytes32",
          "name": "",
          "type": "bytes32"
        }
      ],
      "name": "paymentProofs",
      "outputs": [
        {
          "internalType": "bool",
          "name": "",
          "type": "bool"
        }
      ],
      "stateMutability": "view",
      "type": "function"
    },
    {
      "inputs": [],
      "name": "platformFee",
      "outputs": [
        {
          "internalType": "uint256",
          "name": "",
          "type": "uint256"
        }
      ],
      "stateMutability": "view",
      "type": "function"
    },
    {
      "inputs": [],
      "name": "renounceOwnership",
      "outputs": [],
      "stateMutability": "nonpayable",
      "type": "function"
    },
    {
      "inputs": [
        {
          "internalType": "address",
          "name": "",
          "type": "address"
        }
      ],
      "name": "totalPayments",
      "outputs": [
        {
          "internalType": "uint256",
          "name": "",
          "type": "uint256"
        }
      ],
      "stateMutability": "view",
      "type": "function"
    },
    {
      "inputs": [
        {
          "internalType": "address",
          "name": "",
          "type": "address"
        }
      ],
      "name": "totalRequests",
      "outputs": [
        {
          "internalType": "uint256",
          "name": "",
          "type": "uint256"
        }
      ],
      "stateMutability": "view",
      "type": "function"
    },
    {
      "inputs": [
        {
          "internalType": "address",
          "name": "newOwner",
          "type": "address"
        }
      ],
      "name": "transferOwnership",
      "outputs": [],
      "stateMutability": "nonpayable",
      "type": "function"
    },
    {
      "inputs": [
        {
          "internalType": "uint256",
          "name": "newFee",
          "type": "uint256"
        }
      ],
      "name": "updatePlatformFee",
      "outputs": [],
      "stateMutability": "nonpayable",
      "type": "function"
    },
    {
      "inputs": [],
      "name": "usdcToken",
      "outputs": [
        {
          "internalType": "contract IERC20",
          "name": "",
          "type": "address"
        }
      ],
      "stateMutability": "view",
      "type": "function"
    },
    {
      "inputs": [
        {
          "internalType": "bytes32",
          "name": "requestId",
          "type": "bytes32"
        },
        {
          "internalType": "address",
          "name": "payer",
          "type": "address"
        },
        {
          "internalType": "uint256",
          "name": "amount",
          "type": "uint256"
        }
      ],
      "name": "verifyPayment",
      "outputs": [
        {
          "internalType": "bool",
          "name": "success",
          "type": "bool"
        }
      ],
      "stateMutability": "nonpayable",
      "type": "function"
    }
  ],
  "bytecode": "0x60a0604052600060055534801561001557600080fd5b50604051610dde380380610dde833981016040819052610034916100cc565b6001600055338061005f57604051631e4fbdf760e01b81526000600482015260240160405180910390fd5b6100688161007a565b506001600160a01b03166080526100fc565b600180546001600160a01b038381166001600160a01b0319831681179093556040519116919082907f8be0079c531659141344cd1fd0a4f28419497f9722a3daafe3b4186f6b6457e090600090a35050565b6000602082840312156100de57600080fd5b81516001600160a01b03811681146100f557600080fd5b9392505050565b608051610cab6101336000396000818161010a015281816101ae015281816103790152818161046801526104fd0152610cab6000f3fe608060405234801561001057600080fd5b50600436106101005760003560e01c806395ccea6711610097578063c0ad46a511610066578063c0ad46a5146102aa578063cd4700fc146102cd578063d73792a9146102ed578063f2fde38b146102f657600080fd5b806395ccea67146102165780639798d20114610229578063aa0b59881461024c578063b515b19c1461025f57600080fd5b8063715018a6116100d3578063715018a6146101955780637cc1f8671461019d57806388607743146101e55780638da5cb5b1461020557600080fd5b806311eac8551461010557806326232a2e1461014957806334777e581461016057806367af3e5114610180575b600080fd5b61012c7f000000000000000000000000000000000000000000000000000000000000000081565b6040516001600160a01b0390911681526020015b60405180910390f35b61015260055481565b604051908152602001610140565b61015261016e3660046109f2565b60046020526000908152604090205481565b61019361018e366004610a14565b610309565b005b610193610697565b600554604080516001600160a01b037f000000000000000000000000000000000000000000000000000000000000000016815260208101929092524790820152606001610140565b6101f86101f3366004610a47565b6106ab565b6040516101409190610abc565b6001546001600160a01b031661012c565b610193610224366004610b02565b610771565b61023c610237366004610b2c565b61080b565b6040519015158152602001610140565b61019361025a366004610b61565b61087a565b61029561026d3660046109f2565b6001600160a01b03166000908152600360209081526040808320546004909252909120549091565b60408051928352602083019190915201610140565b61023c6102b8366004610b61565b60026020526000908152604090205460ff1681565b6101526102db3660046109f2565b60036020526000908152604090205481565b61015261271081565b6101936103043660046109f2565b6108ea565b61031161092d565b816000036103325760405163162908e360e11b815260040160405180910390fd5b60008181526002602052604090205460ff16156103625760405163424e8d7160e01b815260040160405180910390fd5b6040516370a0823160e01b815233600482015282907f00000000000000000000000000000000000000000000000000000000000000006001600160a01b0316906370a0823190602401602060405180830381865afa1580156103c8573d6000803e3d6000fd5b505050506040513d601f19601f820116820180604052508101906103ec9190610b7a565b101561040b57604051631e9acf1760e31b815260040160405180910390fd5b60006127106005548461041e9190610ba9565b6104289190610bc6565b905060006104368285610be8565b6040516323b872dd60e01b81523360048201526001600160a01b038781166024830152604482018390529192506000917f000000000000000000000000000000000000000000000000000000000000000016906323b872dd906064016020604051808303816000875af11580156104b1573d6000803e3d6000fd5b505050506040513d601f19601f820116820180604052508101906104d59190610bfb565b9050806104f5576040516312171d8360e31b815260040160405180910390fd5b82156105d5577f00000000000000000000000000000000000000000000000000000000000000006001600160a01b03166323b872dd3361053d6001546001600160a01b031690565b6040516001600160e01b031960e085901b1681526001600160a01b03928316600482015291166024820152604481018690526064016020604051808303816000875af1158015610591573d6000803e3d6000fd5b505050506040513d601f19601f820116820180604052508101906105b59190610bfb565b9050806105d5576040516312171d8360e31b815260040160405180910390fd5b6000848152600260209081526040808320805460ff1916600117905533835260039091528120805487929061060b908490610c1d565b90915550506001600160a01b0386166000908152600460205260408120805460019290610639908490610c1d565b90915550506040805186815242602082015285916001600160a01b0389169133917f42fd924a392ae678bb02600a1ac6d3cbb094ff14f737ad52e3949830b69b8fd2910160405180910390a45050506106926001600055565b505050565b61069f610957565b6106a96000610984565b565b60608167ffffffffffffffff8111156106c6576106c6610c30565b6040519080825280602002602001820160405280156106ef578160200160208202803683370190505b50905060005b8281101561076a576002600085858481811061071357610713610c46565b90506020020135815260200190815260200160002060009054906101000a900460ff1682828151811061074857610748610c46565b911515602092830291909101909101528061076281610c5c565b9150506106f5565b5092915050565b610779610957565b816001600160a01b031663a9059cbb61079a6001546001600160a01b031690565b6040516001600160e01b031960e084901b1681526001600160a01b039091166004820152602481018490526044016020604051808303816000875af11580156107e7573d6000803e3d6000fd5b505050506040513d601f19601f820116820180604052508101906106929190610bfb565b6000838152600260205260409081902054905160ff909116906001600160a01b0384169085907f9969c75e8c96e911b0d7f86ea81980253b05056961e3c79f859a3043b2a4816b9061086b90869086909182521515602082015260400190565b60405180910390a39392505050565b610882610957565b6103e88111156108a55760405163162908e360e11b815260040160405180910390fd5b600580549082905560408051828152602081018490527fd347e206f25a89b917fc9482f1a2d294d749baa4dc9bde7fb495ee11fe491643910160405180910390a15050565b6108f2610957565b6001600160a01b03811661092157604051631e4fbdf760e01b8152600060048201526024015b60405180910390fd5b61092a81610984565b50565b60026000540361095057604051633ee5aeb560e01b815260040160405180910390fd5b6002600055565b6001546001600160a01b031633146106a95760405163118cdaa760e01b8152336004820152602401610918565b600180546001600160a01b038381166001600160a01b0319831681179093556040519116919082907f8be0079c531659141344cd1fd0a4f28419497f9722a3daafe3b4186f6b6457e090600090a35050565b80356001600160a01b03811681146109ed57600080fd5b919050565b600060208284031215610a0457600080fd5b610a0d826109d6565b9392505050565b600080600060608486031215610a2957600080fd5b610a32846109d6565b95602085013595506040909401359392505050565b60008060208385031215610a5a57600080fd5b823567ffffffffffffffff80821115610a7257600080fd5b818501915085601f830112610a8657600080fd5b813581811115610a9557600080fd5b8660208260051b8501011115610aaa57600080fd5b60209290920196919550909350505050565b6020808252825182820181905260009190848201906040850190845b81811015610af6578351151583529284019291840191600101610ad8565b50909695505050505050565b60008060408385031215610b1557600080fd5b610b1e836109d6565b946020939093013593505050565b600080600060608486031215610b4157600080fd5b83359250610b51602085016109d6565b9150604084013590509250925092565b600060208284031215610b7357600080fd5b5035919050565b600060208284031215610b8c57600080fd5b5051919050565b634e487b7160e01b600052601160045260246000fd5b8082028115828204841417610bc057610bc0610b93565b92915050565b600082610be357634e487b7160e01b600052601260045260246000fd5b500490565b81810381811115610bc057610bc0610b93565b600060208284031215610c0d57600080fd5b81518015158114610a0d57600080fd5b80820180821115610bc057610bc0610b93565b634e487b7160e01b600052604160045260246000fd5b634e487b7160e01b600052603260045260246000fd5b600060018201610c6e57610c6e610b93565b506001019056fea26469706673582212201dc39cd22a3f96dd4ef1d41f99d3dce6d95aebab695f1eb644e46129eff34f0064736f6c63430008140033",
  "linkReferences": {},
  "deployedLinkReferences": {}
}